{
  "contractName": "myPayment",
  "abi": [
    {
      "inputs": [
        {
          "internalType": "string[]",
          "name": "_uuid",
          "type": "string[]"
        },
        {
          "internalType": "address",
          "name": "product_address",
          "type": "address"
        },
        {
          "internalType": "address",
          "name": "user_address",
          "type": "address"
        }
      ],
      "name": "buyProduct",
      "outputs": [],
      "stateMutability": "nonpayable",
      "type": "function"
    },
    {
      "inputs": [],
      "name": "getPendingTransaction",
      "outputs": [
        {
          "components": [
            {
              "internalType": "address",
              "name": "buyer_address",
              "type": "address"
            },
            {
              "internalType": "address",
              "name": "seller_address",
              "type": "address"
            },
            {
              "internalType": "int256",
              "name": "pendingAmount",
              "type": "int256"
            },
            {
              "internalType": "string",
              "name": "product_uuid",
              "type": "string"
            },
            {
              "internalType": "string",
              "name": "status",
              "type": "string"
            }
          ],
          "internalType": "struct myPayment.PendingTransaction[]",
          "name": "",
          "type": "tuple[]"
        }
      ],
      "stateMutability": "view",
      "type": "function",
      "constant": true
    },
    {
      "inputs": [
        {
          "internalType": "string",
          "name": "_uuid",
          "type": "string"
        }
      ],
      "name": "getOnePendingTransaction",
      "outputs": [
        {
          "components": [
            {
              "internalType": "address",
              "name": "buyer_address",
              "type": "address"
            },
            {
              "internalType": "address",
              "name": "seller_address",
              "type": "address"
            },
            {
              "internalType": "int256",
              "name": "pendingAmount",
              "type": "int256"
            },
            {
              "internalType": "string",
              "name": "product_uuid",
              "type": "string"
            },
            {
              "internalType": "string",
              "name": "status",
              "type": "string"
            }
          ],
          "internalType": "struct myPayment.PendingTransaction",
          "name": "",
          "type": "tuple"
        }
      ],
      "stateMutability": "view",
      "type": "function",
      "constant": true
    },
    {
      "inputs": [
        {
          "internalType": "string",
          "name": "_uuid",
          "type": "string"
        },
        {
          "internalType": "address",
          "name": "product_address",
          "type": "address"
        },
        {
          "internalType": "address",
          "name": "user_address",
          "type": "address"
        }
      ],
      "name": "releasePayment",
      "outputs": [],
      "stateMutability": "nonpayable",
      "type": "function"
    }
  ],
  "bytecode": "0x60806040526040516200001290620000ef565b604051809103906000f0801580156200002f573d6000803e3d6000fd5b506000806101000a81548173ffffffffffffffffffffffffffffffffffffffff021916908373ffffffffffffffffffffffffffffffffffffffff1602179055506040516200007d90620000fd565b604051809103906000f0801580156200009a573d6000803e3d6000fd5b50600160006101000a81548173ffffffffffffffffffffffffffffffffffffffff021916908373ffffffffffffffffffffffffffffffffffffffff160217905550348015620000e857600080fd5b506200010b565b6116e28062001d8d83390190565b611d66806200346f83390190565b611c72806200011b6000396000f3fe608060405234801561001057600080fd5b506004361061004c5760003560e01c806332a85b3e1461005157806342cb439b1461006f5780636b60c0611461008b578063a33fc329146100a7575b600080fd5b6100596100d7565b60405161006691906111f0565b60405180910390f35b61008960048036038101906100849190611387565b61039f565b005b6100a560048036038101906100a091906114dc565b6107be565b005b6100c160048036038101906100bc919061154b565b610cae565b6040516100ce9190611611565b60405180910390f35b6060600060038054905067ffffffffffffffff8111156100fa576100f9611230565b5b60405190808252806020026020018201604052801561013357816020015b610120610ec0565b8152602001906001900390816101185790505b50905060005b6003805490508110156103975760026003828154811061015c5761015b611633565b5b906000526020600020016040516101739190611762565b90815260200160405180910390206040518060a00160405290816000820160009054906101000a900473ffffffffffffffffffffffffffffffffffffffff1673ffffffffffffffffffffffffffffffffffffffff1673ffffffffffffffffffffffffffffffffffffffff1681526020016001820160009054906101000a900473ffffffffffffffffffffffffffffffffffffffff1673ffffffffffffffffffffffffffffffffffffffff1673ffffffffffffffffffffffffffffffffffffffff1681526020016002820154815260200160038201805461025290611691565b80601f016020809104026020016040519081016040528092919081815260200182805461027e90611691565b80156102cb5780601f106102a0576101008083540402835291602001916102cb565b820191906000526020600020905b8154815290600101906020018083116102ae57829003601f168201915b505050505081526020016004820180546102e490611691565b80601f016020809104026020016040519081016040528092919081815260200182805461031090611691565b801561035d5780601f106103325761010080835404028352916020019161035d565b820191906000526020600020905b81548152906001019060200180831161034057829003601f168201915b50505050508152505082828151811061037957610378611633565b5b6020026020010181905250808061038f906117b2565b915050610139565b508091505090565b60006002846040516103b1919061182c565b90815260200160405180910390206040518060a00160405290816000820160009054906101000a900473ffffffffffffffffffffffffffffffffffffffff1673ffffffffffffffffffffffffffffffffffffffff1673ffffffffffffffffffffffffffffffffffffffff1681526020016001820160009054906101000a900473ffffffffffffffffffffffffffffffffffffffff1673ffffffffffffffffffffffffffffffffffffffff1673ffffffffffffffffffffffffffffffffffffffff1681526020016002820154815260200160038201805461049090611691565b80601f01602080910402602001604051908101604052809291908181526020018280546104bc90611691565b80156105095780601f106104de57610100808354040283529160200191610509565b820191906000526020600020905b8154815290600101906020018083116104ec57829003601f168201915b5050505050815260200160048201805461052290611691565b80601f016020809104026020016040519081016040528092919081815260200182805461054e90611691565b801561059b5780601f106105705761010080835404028352916020019161059b565b820191906000526020600020905b81548152906001019060200180831161057e57829003601f168201915b50505050508152505090508173ffffffffffffffffffffffffffffffffffffffff1663d75475a5826040015183602001516040518363ffffffff1660e01b81526004016105e9929190611861565b600060405180830381600087803b15801561060357600080fd5b505af1158015610617573d6000803e3d6000fd5b505050506040518060400160405280600681526020017f436c6f736564000000000000000000000000000000000000000000000000000081525081608001819052508060028560405161066a919061182c565b908152602001604051809103902060008201518160000160006101000a81548173ffffffffffffffffffffffffffffffffffffffff021916908373ffffffffffffffffffffffffffffffffffffffff16021790555060208201518160010160006101000a81548173ffffffffffffffffffffffffffffffffffffffff021916908373ffffffffffffffffffffffffffffffffffffffff16021790555060408201518160020155606082015181600301908051906020019061072c929190610f1b565b506080820151816004019080519060200190610749929190610f1b565b509050508273ffffffffffffffffffffffffffffffffffffffff166381ebfc7c856040518263ffffffff1660e01b81526004016107869190611920565b600060405180830381600087803b1580156107a057600080fd5b505af11580156107b4573d6000803e3d6000fd5b5050505050505050565b60005b8351811015610ca8576040518060a001604052803373ffffffffffffffffffffffffffffffffffffffff1681526020018473ffffffffffffffffffffffffffffffffffffffff166368111cce8785815181106108205761081f611633565b5b60200260200101516040518263ffffffff1660e01b81526004016108449190611955565b600060405180830381865afa158015610861573d6000803e3d6000fd5b505050506040513d6000823e3d601f19601f8201168201806040525081019061088a9190611b72565b6060015173ffffffffffffffffffffffffffffffffffffffff1681526020018473ffffffffffffffffffffffffffffffffffffffff166368111cce8785815181106108d8576108d7611633565b5b60200260200101516040518263ffffffff1660e01b81526004016108fc9190611955565b600060405180830381865afa158015610919573d6000803e3d6000fd5b505050506040513d6000823e3d601f19601f820116820180604052508101906109429190611b72565b60800151815260200185838151811061095e5761095d611633565b5b602002602001015181526020016040518060400160405280600781526020017f50656e64696e670000000000000000000000000000000000000000000000000081525081525060028583815181106109b9576109b8611633565b5b60200260200101516040516109ce919061182c565b908152602001604051809103902060008201518160000160006101000a81548173ffffffffffffffffffffffffffffffffffffffff021916908373ffffffffffffffffffffffffffffffffffffffff16021790555060208201518160010160006101000a81548173ffffffffffffffffffffffffffffffffffffffff021916908373ffffffffffffffffffffffffffffffffffffffff160217905550604082015181600201556060820151816003019080519060200190610a90929190610f1b565b506080820151816004019080519060200190610aad929190610f1b565b509050506003848281518110610ac657610ac5611633565b5b6020026020010151908060018154018082558091505060019003906000526020600020016000909190919091509080519060200190610b06929190610f1b565b508273ffffffffffffffffffffffffffffffffffffffff166381ebfc7c858381518110610b3657610b35611633565b5b60200260200101516040518263ffffffff1660e01b8152600401610b5a9190611c07565b600060405180830381600087803b158015610b7457600080fd5b505af1158015610b88573d6000803e3d6000fd5b505050508173ffffffffffffffffffffffffffffffffffffffff166314ecdb348473ffffffffffffffffffffffffffffffffffffffff166368111cce878581518110610bd757610bd6611633565b5b60200260200101516040518263ffffffff1660e01b8152600401610bfb9190611955565b600060405180830381865afa158015610c18573d6000803e3d6000fd5b505050506040513d6000823e3d601f19601f82011682018060405250810190610c419190611b72565b60800151336040518363ffffffff1660e01b8152600401610c63929190611861565b600060405180830381600087803b158015610c7d57600080fd5b505af1158015610c91573d6000803e3d6000fd5b505050508080610ca0906117b2565b9150506107c1565b50505050565b610cb6610ec0565b600282604051610cc6919061182c565b90815260200160405180910390206040518060a00160405290816000820160009054906101000a900473ffffffffffffffffffffffffffffffffffffffff1673ffffffffffffffffffffffffffffffffffffffff1673ffffffffffffffffffffffffffffffffffffffff1681526020016001820160009054906101000a900473ffffffffffffffffffffffffffffffffffffffff1673ffffffffffffffffffffffffffffffffffffffff1673ffffffffffffffffffffffffffffffffffffffff16815260200160028201548152602001600382018054610da590611691565b80601f0160208091040260200160405190810160405280929190818152602001828054610dd190611691565b8015610e1e5780601f10610df357610100808354040283529160200191610e1e565b820191906000526020600020905b815481529060010190602001808311610e0157829003601f168201915b50505050508152602001600482018054610e3790611691565b80601f0160208091040260200160405190810160405280929190818152602001828054610e6390611691565b8015610eb05780601f10610e8557610100808354040283529160200191610eb0565b820191906000526020600020905b815481529060010190602001808311610e9357829003601f168201915b5050505050815250509050919050565b6040518060a00160405280600073ffffffffffffffffffffffffffffffffffffffff168152602001600073ffffffffffffffffffffffffffffffffffffffff1681526020016000815260200160608152602001606081525090565b828054610f2790611691565b90600052602060002090601f016020900481019282610f495760008555610f90565b82601f10610f6257805160ff1916838001178555610f90565b82800160010185558215610f90579182015b82811115610f8f578251825591602001919060010190610f74565b5b509050610f9d9190610fa1565b5090565b5b80821115610fba576000816000905550600101610fa2565b5090565b600081519050919050565b600082825260208201905092915050565b6000819050602082019050919050565b600073ffffffffffffffffffffffffffffffffffffffff82169050919050565b600061101582610fea565b9050919050565b6110258161100a565b82525050565b6000819050919050565b61103e8161102b565b82525050565b600081519050919050565b600082825260208201905092915050565b60005b8381101561107e578082015181840152602081019050611063565b8381111561108d576000848401525b50505050565b6000601f19601f8301169050919050565b60006110af82611044565b6110b9818561104f565b93506110c9818560208601611060565b6110d281611093565b840191505092915050565b600060a0830160008301516110f5600086018261101c565b506020830151611108602086018261101c565b50604083015161111b6040860182611035565b506060830151848203606086015261113382826110a4565b9150506080830151848203608086015261114d82826110a4565b9150508091505092915050565b600061116683836110dd565b905092915050565b6000602082019050919050565b600061118682610fbe565b6111908185610fc9565b9350836020820285016111a285610fda565b8060005b858110156111de57848403895281516111bf858261115a565b94506111ca8361116e565b925060208a019950506001810190506111a6565b50829750879550505050505092915050565b6000602082019050818103600083015261120a818461117b565b905092915050565b6000604051905090565b600080fd5b600080fd5b600080fd5b600080fd5b7f4e487b7100000000000000000000000000000000000000000000000000000000600052604160045260246000fd5b61126882611093565b810181811067ffffffffffffffff8211171561128757611286611230565b5b80604052505050565b600061129a611212565b90506112a6828261125f565b919050565b600067ffffffffffffffff8211156112c6576112c5611230565b5b6112cf82611093565b9050602081019050919050565b82818337600083830152505050565b60006112fe6112f9846112ab565b611290565b90508281526020810184848401111561131a5761131961122b565b5b6113258482856112dc565b509392505050565b600082601f83011261134257611341611226565b5b81356113528482602086016112eb565b91505092915050565b6113648161100a565b811461136f57600080fd5b50565b6000813590506113818161135b565b92915050565b6000806000606084860312156113a05761139f61121c565b5b600084013567ffffffffffffffff8111156113be576113bd611221565b5b6113ca8682870161132d565b93505060206113db86828701611372565b92505060406113ec86828701611372565b9150509250925092565b600067ffffffffffffffff82111561141157611410611230565b5b602082029050602081019050919050565b600080fd5b600061143a611435846113f6565b611290565b9050808382526020820190506020840283018581111561145d5761145c611422565b5b835b818110156114a457803567ffffffffffffffff81111561148257611481611226565b5b80860161148f898261132d565b8552602085019450505060208101905061145f565b5050509392505050565b600082601f8301126114c3576114c2611226565b5b81356114d3848260208601611427565b91505092915050565b6000806000606084860312156114f5576114f461121c565b5b600084013567ffffffffffffffff81111561151357611512611221565b5b61151f868287016114ae565b935050602061153086828701611372565b925050604061154186828701611372565b9150509250925092565b6000602082840312156115615761156061121c565b5b600082013567ffffffffffffffff81111561157f5761157e611221565b5b61158b8482850161132d565b91505092915050565b600060a0830160008301516115ac600086018261101c565b5060208301516115bf602086018261101c565b5060408301516115d26040860182611035565b50606083015184820360608601526115ea82826110a4565b9150506080830151848203608086015261160482826110a4565b9150508091505092915050565b6000602082019050818103600083015261162b8184611594565b905092915050565b7f4e487b7100000000000000000000000000000000000000000000000000000000600052603260045260246000fd5b7f4e487b7100000000000000000000000000000000000000000000000000000000600052602260045260246000fd5b600060028204905060018216806116a957607f821691505b602082108114156116bd576116bc611662565b5b50919050565b600081905092915050565b60008190508160005260206000209050919050565b600081546116f081611691565b6116fa81866116c3565b94506001821660008114611715576001811461172657611759565b60ff19831686528186019350611759565b61172f856116ce565b60005b8381101561175157815481890152600182019150602081019050611732565b838801955050505b50505092915050565b600061176e82846116e3565b915081905092915050565b7f4e487b7100000000000000000000000000000000000000000000000000000000600052601160045260246000fd5b6000819050919050565b60006117bd826117a8565b91507fffffffffffffffffffffffffffffffffffffffffffffffffffffffffffffffff8214156117f0576117ef611779565b5b600182019050919050565b600061180682611044565b61181081856116c3565b9350611820818560208601611060565b80840191505092915050565b600061183882846117fb565b915081905092915050565b61184c8161102b565b82525050565b61185b8161100a565b82525050565b60006040820190506118766000830185611843565b6118836020830184611852565b9392505050565b600082825260208201905092915050565b60006118a682611044565b6118b0818561188a565b93506118c0818560208601611060565b6118c981611093565b840191505092915050565b7f536f6c6400000000000000000000000000000000000000000000000000000000600082015250565b600061190a60048361188a565b9150611915826118d4565b602082019050919050565b6000604082019050818103600083015261193a818461189b565b9050818103602083015261194d816118fd565b905092915050565b6000602082019050818103600083015261196f818461189b565b905092915050565b600080fd5b600080fd5b600061199461198f846112ab565b611290565b9050828152602081018484840111156119b0576119af61122b565b5b6119bb848285611060565b509392505050565b600082601f8301126119d8576119d7611226565b5b81516119e8848260208601611981565b91505092915050565b600081519050611a008161135b565b92915050565b611a0f8161102b565b8114611a1a57600080fd5b50565b600081519050611a2c81611a06565b92915050565b600060e08284031215611a4857611a47611977565b5b611a5260e0611290565b9050600082015167ffffffffffffffff811115611a7257611a7161197c565b5b611a7e848285016119c3565b600083015250602082015167ffffffffffffffff811115611aa257611aa161197c565b5b611aae848285016119c3565b602083015250604082015167ffffffffffffffff811115611ad257611ad161197c565b5b611ade848285016119c3565b6040830152506060611af2848285016119f1565b6060830152506080611b0684828501611a1d565b60808301525060a082015167ffffffffffffffff811115611b2a57611b2961197c565b5b611b36848285016119c3565b60a08301525060c082015167ffffffffffffffff811115611b5a57611b5961197c565b5b611b66848285016119c3565b60c08301525092915050565b600060208284031215611b8857611b8761121c565b5b600082015167ffffffffffffffff811115611ba657611ba5611221565b5b611bb284828501611a32565b91505092915050565b7f50656e64696e6700000000000000000000000000000000000000000000000000600082015250565b6000611bf160078361188a565b9150611bfc82611bbb565b602082019050919050565b60006040820190508181036000830152611c21818461189b565b90508181036020830152611c3481611be4565b90509291505056fea26469706673582212202be0318778fe7e3df851b4d2cd801c243fb7881ffb212c5fba2d9e89b159e40464736f6c634300080b0033608060405234801561001057600080fd5b506116c2806100206000396000f3fe608060405234801561001057600080fd5b50600436106100875760003560e01c806387b162b51161005b57806387b162b5146100ee578063d75475a51461010a578063d83b066e14610126578063dd4a24251461014257610087565b8062ce8e3e1461008c578063026ff05e146100aa57806314ecdb34146100b4578063832880e7146100d0575b600080fd5b61009461015e565b6040516100a19190610fd2565b60405180910390f35b6100b2610411565b005b6100ce60048036038101906100c99190611060565b61062f565b005b6100d86106c5565b6040516100e5919061110a565b60405180910390f35b61010860048036038101906101039190611261565b61089f565b005b610124600480360381019061011f9190611060565b610a9a565b005b610140600480360381019061013b91906112d9565b610af6565b005b61015c60048036038101906101579190611261565b610b51565b005b6060600060018054905067ffffffffffffffff81111561018157610180611136565b5b6040519080825280602002602001820160405280156101ba57816020015b6101a7610c92565b81526020019060019003908161019f5790505b50905060005b60018054905081101561040957600080600183815481106101e4576101e3611306565b5b9060005260206000200160009054906101000a900473ffffffffffffffffffffffffffffffffffffffff1673ffffffffffffffffffffffffffffffffffffffff1673ffffffffffffffffffffffffffffffffffffffff1681526020019081526020016000206040518060800160405290816000820160009054906101000a900473ffffffffffffffffffffffffffffffffffffffff1673ffffffffffffffffffffffffffffffffffffffff1673ffffffffffffffffffffffffffffffffffffffff1681526020016001820180546102ba90611364565b80601f01602080910402602001604051908101604052809291908181526020018280546102e690611364565b80156103335780601f1061030857610100808354040283529160200191610333565b820191906000526020600020905b81548152906001019060200180831161031657829003601f168201915b5050505050815260200160028201805461034c90611364565b80601f016020809104026020016040519081016040528092919081815260200182805461037890611364565b80156103c55780601f1061039a576101008083540402835291602001916103c5565b820191906000526020600020905b8154815290600101906020018083116103a857829003601f168201915b505050505081526020016003820154815250508282815181106103eb576103ea611306565b5b60200260200101819052508080610401906113cf565b9150506101c0565b508091505090565b6000803373ffffffffffffffffffffffffffffffffffffffff1673ffffffffffffffffffffffffffffffffffffffff168152602001908152602001600020600080820160006101000a81549073ffffffffffffffffffffffffffffffffffffffff02191690556001820160006104879190610cd0565b6002820160006104979190610cd0565b6003820160009055505060005b60018054905081101561062c573373ffffffffffffffffffffffffffffffffffffffff16600182815481106104dc576104db611306565b5b9060005260206000200160009054906101000a900473ffffffffffffffffffffffffffffffffffffffff1673ffffffffffffffffffffffffffffffffffffffff1614156106195760018080805490506105359190611418565b8154811061054657610545611306565b5b9060005260206000200160009054906101000a900473ffffffffffffffffffffffffffffffffffffffff166001828154811061058557610584611306565b5b9060005260206000200160006101000a81548173ffffffffffffffffffffffffffffffffffffffff021916908373ffffffffffffffffffffffffffffffffffffffff16021790555060018054806105df576105de61144c565b5b6001900381819060005260206000200160006101000a81549073ffffffffffffffffffffffffffffffffffffffff0219169055905561062c565b8080610624906113cf565b9150506104a4565b50565b816000808373ffffffffffffffffffffffffffffffffffffffff1673ffffffffffffffffffffffffffffffffffffffff1681526020019081526020016000206003015461067c919061147b565b6000808373ffffffffffffffffffffffffffffffffffffffff1673ffffffffffffffffffffffffffffffffffffffff168152602001908152602001600020600301819055505050565b6106cd610c92565b6000803373ffffffffffffffffffffffffffffffffffffffff1673ffffffffffffffffffffffffffffffffffffffff1681526020019081526020016000206040518060800160405290816000820160009054906101000a900473ffffffffffffffffffffffffffffffffffffffff1673ffffffffffffffffffffffffffffffffffffffff1673ffffffffffffffffffffffffffffffffffffffff16815260200160018201805461077c90611364565b80601f01602080910402602001604051908101604052809291908181526020018280546107a890611364565b80156107f55780601f106107ca576101008083540402835291602001916107f5565b820191906000526020600020905b8154815290600101906020018083116107d857829003601f168201915b5050505050815260200160028201805461080e90611364565b80601f016020809104026020016040519081016040528092919081815260200182805461083a90611364565b80156108875780601f1061085c57610100808354040283529160200191610887565b820191906000526020600020905b81548152906001019060200180831161086a57829003601f168201915b50505050508152602001600382015481525050905090565b60008060003373ffffffffffffffffffffffffffffffffffffffff1673ffffffffffffffffffffffffffffffffffffffff16815260200190815260200160002060010180546108ed90611364565b90501461092f576040517f08c379a00000000000000000000000000000000000000000000000000000000081526004016109269061156c565b60405180910390fd5b60405180608001604052803373ffffffffffffffffffffffffffffffffffffffff16815260200183815260200182815260200160008152506000803373ffffffffffffffffffffffffffffffffffffffff1673ffffffffffffffffffffffffffffffffffffffff16815260200190815260200160002060008201518160000160006101000a81548173ffffffffffffffffffffffffffffffffffffffff021916908373ffffffffffffffffffffffffffffffffffffffff1602179055506020820151816001019080519060200190610a08929190610d10565b506040820151816002019080519060200190610a25929190610d10565b50606082015181600301559050506001339080600181540180825580915050600190039060005260206000200160009091909190916101000a81548173ffffffffffffffffffffffffffffffffffffffff021916908373ffffffffffffffffffffffffffffffffffffffff1602179055505050565b816000808373ffffffffffffffffffffffffffffffffffffffff1673ffffffffffffffffffffffffffffffffffffffff1681526020019081526020016000206003016000828254610aeb919061158c565b925050819055505050565b806000803373ffffffffffffffffffffffffffffffffffffffff1673ffffffffffffffffffffffffffffffffffffffff1681526020019081526020016000206003016000828254610b47919061158c565b9250508190555050565b60008060003373ffffffffffffffffffffffffffffffffffffffff1673ffffffffffffffffffffffffffffffffffffffff1681526020019081526020016000206001018054610b9f90611364565b90501415610be2576040517f08c379a0000000000000000000000000000000000000000000000000000000008152600401610bd99061166c565b60405180910390fd5b816000803373ffffffffffffffffffffffffffffffffffffffff1673ffffffffffffffffffffffffffffffffffffffff1681526020019081526020016000206001019080519060200190610c37929190610d10565b50806000803373ffffffffffffffffffffffffffffffffffffffff1673ffffffffffffffffffffffffffffffffffffffff1681526020019081526020016000206002019080519060200190610c8d929190610d10565b505050565b6040518060800160405280600073ffffffffffffffffffffffffffffffffffffffff1681526020016060815260200160608152602001600081525090565b508054610cdc90611364565b6000825580601f10610cee5750610d0d565b601f016020900490600052602060002090810190610d0c9190610d96565b5b50565b828054610d1c90611364565b90600052602060002090601f016020900481019282610d3e5760008555610d85565b82601f10610d5757805160ff1916838001178555610d85565b82800160010185558215610d85579182015b82811115610d84578251825591602001919060010190610d69565b5b509050610d929190610d96565b5090565b5b80821115610daf576000816000905550600101610d97565b5090565b600081519050919050565b600082825260208201905092915050565b6000819050602082019050919050565b600073ffffffffffffffffffffffffffffffffffffffff82169050919050565b6000610e0a82610ddf565b9050919050565b610e1a81610dff565b82525050565b600081519050919050565b600082825260208201905092915050565b60005b83811015610e5a578082015181840152602081019050610e3f565b83811115610e69576000848401525b50505050565b6000601f19601f8301169050919050565b6000610e8b82610e20565b610e958185610e2b565b9350610ea5818560208601610e3c565b610eae81610e6f565b840191505092915050565b6000819050919050565b610ecc81610eb9565b82525050565b6000608083016000830151610eea6000860182610e11565b5060208301518482036020860152610f028282610e80565b91505060408301518482036040860152610f1c8282610e80565b9150506060830151610f316060860182610ec3565b508091505092915050565b6000610f488383610ed2565b905092915050565b6000602082019050919050565b6000610f6882610db3565b610f728185610dbe565b935083602082028501610f8485610dcf565b8060005b85811015610fc05784840389528151610fa18582610f3c565b9450610fac83610f50565b925060208a01995050600181019050610f88565b50829750879550505050505092915050565b60006020820190508181036000830152610fec8184610f5d565b905092915050565b6000604051905090565b600080fd5b600080fd5b61101181610eb9565b811461101c57600080fd5b50565b60008135905061102e81611008565b92915050565b61103d81610dff565b811461104857600080fd5b50565b60008135905061105a81611034565b92915050565b6000806040838503121561107757611076610ffe565b5b60006110858582860161101f565b92505060206110968582860161104b565b9150509250929050565b60006080830160008301516110b86000860182610e11565b50602083015184820360208601526110d08282610e80565b915050604083015184820360408601526110ea8282610e80565b91505060608301516110ff6060860182610ec3565b508091505092915050565b6000602082019050818103600083015261112481846110a0565b905092915050565b600080fd5b600080fd5b7f4e487b7100000000000000000000000000000000000000000000000000000000600052604160045260246000fd5b61116e82610e6f565b810181811067ffffffffffffffff8211171561118d5761118c611136565b5b80604052505050565b60006111a0610ff4565b90506111ac8282611165565b919050565b600067ffffffffffffffff8211156111cc576111cb611136565b5b6111d582610e6f565b9050602081019050919050565b82818337600083830152505050565b60006112046111ff846111b1565b611196565b9050828152602081018484840111156112205761121f611131565b5b61122b8482856111e2565b509392505050565b600082601f8301126112485761124761112c565b5b81356112588482602086016111f1565b91505092915050565b6000806040838503121561127857611277610ffe565b5b600083013567ffffffffffffffff81111561129657611295611003565b5b6112a285828601611233565b925050602083013567ffffffffffffffff8111156112c3576112c2611003565b5b6112cf85828601611233565b9150509250929050565b6000602082840312156112ef576112ee610ffe565b5b60006112fd8482850161101f565b91505092915050565b7f4e487b7100000000000000000000000000000000000000000000000000000000600052603260045260246000fd5b7f4e487b7100000000000000000000000000000000000000000000000000000000600052602260045260246000fd5b6000600282049050600182168061137c57607f821691505b602082108114156113905761138f611335565b5b50919050565b7f4e487b7100000000000000000000000000000000000000000000000000000000600052601160045260246000fd5b6000819050919050565b60006113da826113c5565b91507fffffffffffffffffffffffffffffffffffffffffffffffffffffffffffffffff82141561140d5761140c611396565b5b600182019050919050565b6000611423826113c5565b915061142e836113c5565b92508282101561144157611440611396565b5b828203905092915050565b7f4e487b7100000000000000000000000000000000000000000000000000000000600052603160045260246000fd5b600061148682610eb9565b915061149183610eb9565b9250827f8000000000000000000000000000000000000000000000000000000000000000018212600084121516156114cc576114cb611396565b5b827f7fffffffffffffffffffffffffffffffffffffffffffffffffffffffffffffff01821360008412161561150457611503611396565b5b828203905092915050565b600082825260208201905092915050565b7f596f752061726520616c72656164792072656769737465726564210000000000600082015250565b6000611556601b8361150f565b915061156182611520565b602082019050919050565b6000602082019050818103600083015261158581611549565b9050919050565b600061159782610eb9565b91506115a283610eb9565b9250817f7fffffffffffffffffffffffffffffffffffffffffffffffffffffffffffffff038313600083121516156115dd576115dc611396565b5b817f800000000000000000000000000000000000000000000000000000000000000003831260008312161561161557611614611396565b5b828201905092915050565b7f596f7520617265206e6f74207265676973746572656421000000000000000000600082015250565b600061165660178361150f565b915061166182611620565b602082019050919050565b6000602082019050818103600083015261168581611649565b905091905056fea2646970667358221220de9ed9a0bdc8a21ae6e2cd0c3cb43a19027b6b1ea8484e3c555dafbccf1705dd64736f6c634300080b0033608060405234801561001057600080fd5b50611d46806100206000396000f3fe608060405234801561001057600080fd5b50600436106100575760003560e01c80631691473c1461005c57806368111cce1461008c57806381ebfc7c146100bc578063c41f8cfa146100d8578063eb563c0a146100f4575b600080fd5b6100766004803603810190610071919061148f565b610112565b60405161008391906116f7565b60405180910390f35b6100a660048036038101906100a1919061184e565b610573565b6040516100b3919061194f565b60405180910390f35b6100d660048036038101906100d19190611971565b6108e5565b005b6100f260048036038101906100ed9190611a15565b610d3b565b005b6100fc610eff565b60405161010991906116f7565b60405180910390f35b60608060005b600180549050811015610569578373ffffffffffffffffffffffffffffffffffffffff1660006001838154811061015257610151611b00565b5b906000526020600020016040516101699190611c2f565b908152602001604051809103902060030160009054906101000a900473ffffffffffffffffffffffffffffffffffffffff1673ffffffffffffffffffffffffffffffffffffffff161415610556576000600182815481106101cd576101cc611b00565b5b906000526020600020016040516101e49190611c2f565b90815260200160405180910390206040518060e001604052908160008201805461020d90611b5e565b80601f016020809104026020016040519081016040528092919081815260200182805461023990611b5e565b80156102865780601f1061025b57610100808354040283529160200191610286565b820191906000526020600020905b81548152906001019060200180831161026957829003601f168201915b5050505050815260200160018201805461029f90611b5e565b80601f01602080910402602001604051908101604052809291908181526020018280546102cb90611b5e565b80156103185780601f106102ed57610100808354040283529160200191610318565b820191906000526020600020905b8154815290600101906020018083116102fb57829003601f168201915b5050505050815260200160028201805461033190611b5e565b80601f016020809104026020016040519081016040528092919081815260200182805461035d90611b5e565b80156103aa5780601f1061037f576101008083540402835291602001916103aa565b820191906000526020600020905b81548152906001019060200180831161038d57829003601f168201915b505050505081526020016003820160009054906101000a900473ffffffffffffffffffffffffffffffffffffffff1673ffffffffffffffffffffffffffffffffffffffff1673ffffffffffffffffffffffffffffffffffffffff1681526020016004820154815260200160058201805461042390611b5e565b80601f016020809104026020016040519081016040528092919081815260200182805461044f90611b5e565b801561049c5780601f106104715761010080835404028352916020019161049c565b820191906000526020600020905b81548152906001019060200180831161047f57829003601f168201915b505050505081526020016006820180546104b590611b5e565b80601f01602080910402602001604051908101604052809291908181526020018280546104e190611b5e565b801561052e5780601f106105035761010080835404028352916020019161052e565b820191906000526020600020905b81548152906001019060200180831161051157829003601f168201915b50505050508152505082828151811061054a57610549611b00565b5b60200260200101819052505b808061056190611c7f565b915050610118565b5080915050919050565b61057b611327565b60008260405161058b9190611cf9565b90815260200160405180910390206040518060e00160405290816000820180546105b490611b5e565b80601f01602080910402602001604051908101604052809291908181526020018280546105e090611b5e565b801561062d5780601f106106025761010080835404028352916020019161062d565b820191906000526020600020905b81548152906001019060200180831161061057829003601f168201915b5050505050815260200160018201805461064690611b5e565b80601f016020809104026020016040519081016040528092919081815260200182805461067290611b5e565b80156106bf5780601f10610694576101008083540402835291602001916106bf565b820191906000526020600020905b8154815290600101906020018083116106a257829003601f168201915b505050505081526020016002820180546106d890611b5e565b80601f016020809104026020016040519081016040528092919081815260200182805461070490611b5e565b80156107515780601f1061072657610100808354040283529160200191610751565b820191906000526020600020905b81548152906001019060200180831161073457829003601f168201915b505050505081526020016003820160009054906101000a900473ffffffffffffffffffffffffffffffffffffffff1673ffffffffffffffffffffffffffffffffffffffff1673ffffffffffffffffffffffffffffffffffffffff168152602001600482015481526020016005820180546107ca90611b5e565b80601f01602080910402602001604051908101604052809291908181526020018280546107f690611b5e565b80156108435780601f1061081857610100808354040283529160200191610843565b820191906000526020600020905b81548152906001019060200180831161082657829003601f168201915b5050505050815260200160068201805461085c90611b5e565b80601f016020809104026020016040519081016040528092919081815260200182805461088890611b5e565b80156108d55780601f106108aa576101008083540402835291602001916108d5565b820191906000526020600020905b8154815290600101906020018083116108b857829003601f168201915b5050505050815250509050919050565b6040518060e001604052806000846040516109009190611cf9565b9081526020016040518091039020600001805461091c90611b5e565b80601f016020809104026020016040519081016040528092919081815260200182805461094890611b5e565b80156109955780601f1061096a57610100808354040283529160200191610995565b820191906000526020600020905b81548152906001019060200180831161097857829003601f168201915b505050505081526020016000846040516109af9190611cf9565b908152602001604051809103902060010180546109cb90611b5e565b80601f01602080910402602001604051908101604052809291908181526020018280546109f790611b5e565b8015610a445780601f10610a1957610100808354040283529160200191610a44565b820191906000526020600020905b815481529060010190602001808311610a2757829003601f168201915b50505050508152602001600084604051610a5e9190611cf9565b90815260200160405180910390206002018054610a7a90611b5e565b80601f0160208091040260200160405190810160405280929190818152602001828054610aa690611b5e565b8015610af35780601f10610ac857610100808354040283529160200191610af3565b820191906000526020600020905b815481529060010190602001808311610ad657829003601f168201915b50505050508152602001600084604051610b0d9190611cf9565b908152602001604051809103902060030160009054906101000a900473ffffffffffffffffffffffffffffffffffffffff1673ffffffffffffffffffffffffffffffffffffffff168152602001600084604051610b6a9190611cf9565b9081526020016040518091039020600401548152602001828152602001600084604051610b979190611cf9565b90815260200160405180910390206006018054610bb390611b5e565b80601f0160208091040260200160405190810160405280929190818152602001828054610bdf90611b5e565b8015610c2c5780601f10610c0157610100808354040283529160200191610c2c565b820191906000526020600020905b815481529060010190602001808311610c0f57829003601f168201915b5050505050815250600083604051610c449190611cf9565b90815260200160405180910390206000820151816000019080519060200190610c6e92919061137a565b506020820151816001019080519060200190610c8b92919061137a565b506040820151816002019080519060200190610ca892919061137a565b5060608201518160030160006101000a81548173ffffffffffffffffffffffffffffffffffffffff021916908373ffffffffffffffffffffffffffffffffffffffff1602179055506080820151816004015560a0820151816005019080519060200190610d1692919061137a565b5060c0820151816006019080519060200190610d3392919061137a565b509050505050565b6040518060e001604052808381526020018681526020018581526020013373ffffffffffffffffffffffffffffffffffffffff1681526020018481526020016040518060400160405280600981526020017f417661696c61626c650000000000000000000000000000000000000000000000815250815260200182815250600083604051610dc99190611cf9565b90815260200160405180910390206000820151816000019080519060200190610df392919061137a565b506020820151816001019080519060200190610e1092919061137a565b506040820151816002019080519060200190610e2d92919061137a565b5060608201518160030160006101000a81548173ffffffffffffffffffffffffffffffffffffffff021916908373ffffffffffffffffffffffffffffffffffffffff1602179055506080820151816004015560a0820151816005019080519060200190610e9b92919061137a565b5060c0820151816006019080519060200190610eb892919061137a565b50905050600182908060018154018082558091505060019003906000526020600020016000909190919091509080519060200190610ef792919061137a565b505050505050565b6060600060018054905067ffffffffffffffff811115610f2257610f21611723565b5b604051908082528060200260200182016040528015610f5b57816020015b610f48611327565b815260200190600190039081610f405790505b50905060005b60018054905081101561131f57600060018281548110610f8457610f83611b00565b5b90600052602060002001604051610f9b9190611c2f565b90815260200160405180910390206040518060e0016040529081600082018054610fc490611b5e565b80601f0160208091040260200160405190810160405280929190818152602001828054610ff090611b5e565b801561103d5780601f106110125761010080835404028352916020019161103d565b820191906000526020600020905b81548152906001019060200180831161102057829003601f168201915b5050505050815260200160018201805461105690611b5e565b80601f016020809104026020016040519081016040528092919081815260200182805461108290611b5e565b80156110cf5780601f106110a4576101008083540402835291602001916110cf565b820191906000526020600020905b8154815290600101906020018083116110b257829003601f168201915b505050505081526020016002820180546110e890611b5e565b80601f016020809104026020016040519081016040528092919081815260200182805461111490611b5e565b80156111615780601f1061113657610100808354040283529160200191611161565b820191906000526020600020905b81548152906001019060200180831161114457829003601f168201915b505050505081526020016003820160009054906101000a900473ffffffffffffffffffffffffffffffffffffffff1673ffffffffffffffffffffffffffffffffffffffff1673ffffffffffffffffffffffffffffffffffffffff168152602001600482015481526020016005820180546111da90611b5e565b80601f016020809104026020016040519081016040528092919081815260200182805461120690611b5e565b80156112535780601f1061122857610100808354040283529160200191611253565b820191906000526020600020905b81548152906001019060200180831161123657829003601f168201915b5050505050815260200160068201805461126c90611b5e565b80601f016020809104026020016040519081016040528092919081815260200182805461129890611b5e565b80156112e55780601f106112ba576101008083540402835291602001916112e5565b820191906000526020600020905b8154815290600101906020018083116112c857829003601f168201915b50505050508152505082828151811061130157611300611b00565b5b6020026020010181905250808061131790611c7f565b915050610f61565b508091505090565b6040518060e00160405280606081526020016060815260200160608152602001600073ffffffffffffffffffffffffffffffffffffffff1681526020016000815260200160608152602001606081525090565b82805461138690611b5e565b90600052602060002090601f0160209004810192826113a857600085556113ef565b82601f106113c157805160ff19168380011785556113ef565b828001600101855582156113ef579182015b828111156113ee5782518255916020019190600101906113d3565b5b5090506113fc9190611400565b5090565b5b80821115611419576000816000905550600101611401565b5090565b6000604051905090565b600080fd5b600080fd5b600073ffffffffffffffffffffffffffffffffffffffff82169050919050565b600061145c82611431565b9050919050565b61146c81611451565b811461147757600080fd5b50565b60008135905061148981611463565b92915050565b6000602082840312156114a5576114a4611427565b5b60006114b38482850161147a565b91505092915050565b600081519050919050565b600082825260208201905092915050565b6000819050602082019050919050565b600081519050919050565b600082825260208201905092915050565b60005b83811015611522578082015181840152602081019050611507565b83811115611531576000848401525b50505050565b6000601f19601f8301169050919050565b6000611553826114e8565b61155d81856114f3565b935061156d818560208601611504565b61157681611537565b840191505092915050565b61158a81611451565b82525050565b6000819050919050565b6115a381611590565b82525050565b600060e08301600083015184820360008601526115c68282611548565b915050602083015184820360208601526115e08282611548565b915050604083015184820360408601526115fa8282611548565b915050606083015161160f6060860182611581565b506080830151611622608086018261159a565b5060a083015184820360a086015261163a8282611548565b91505060c083015184820360c08601526116548282611548565b9150508091505092915050565b600061166d83836115a9565b905092915050565b6000602082019050919050565b600061168d826114bc565b61169781856114c7565b9350836020820285016116a9856114d8565b8060005b858110156116e557848403895281516116c68582611661565b94506116d183611675565b925060208a019950506001810190506116ad565b50829750879550505050505092915050565b600060208201905081810360008301526117118184611682565b905092915050565b600080fd5b600080fd5b7f4e487b7100000000000000000000000000000000000000000000000000000000600052604160045260246000fd5b61175b82611537565b810181811067ffffffffffffffff8211171561177a57611779611723565b5b80604052505050565b600061178d61141d565b90506117998282611752565b919050565b600067ffffffffffffffff8211156117b9576117b8611723565b5b6117c282611537565b9050602081019050919050565b82818337600083830152505050565b60006117f16117ec8461179e565b611783565b90508281526020810184848401111561180d5761180c61171e565b5b6118188482856117cf565b509392505050565b600082601f83011261183557611834611719565b5b81356118458482602086016117de565b91505092915050565b60006020828403121561186457611863611427565b5b600082013567ffffffffffffffff8111156118825761188161142c565b5b61188e84828501611820565b91505092915050565b600060e08301600083015184820360008601526118b48282611548565b915050602083015184820360208601526118ce8282611548565b915050604083015184820360408601526118e88282611548565b91505060608301516118fd6060860182611581565b506080830151611910608086018261159a565b5060a083015184820360a08601526119288282611548565b91505060c083015184820360c08601526119428282611548565b9150508091505092915050565b600060208201905081810360008301526119698184611897565b905092915050565b6000806040838503121561198857611987611427565b5b600083013567ffffffffffffffff8111156119a6576119a561142c565b5b6119b285828601611820565b925050602083013567ffffffffffffffff8111156119d3576119d261142c565b5b6119df85828601611820565b9150509250929050565b6119f281611590565b81146119fd57600080fd5b50565b600081359050611a0f816119e9565b92915050565b600080600080600060a08688031215611a3157611a30611427565b5b600086013567ffffffffffffffff811115611a4f57611a4e61142c565b5b611a5b88828901611820565b955050602086013567ffffffffffffffff811115611a7c57611a7b61142c565b5b611a8888828901611820565b9450506040611a9988828901611a00565b935050606086013567ffffffffffffffff811115611aba57611ab961142c565b5b611ac688828901611820565b925050608086013567ffffffffffffffff811115611ae757611ae661142c565b5b611af388828901611820565b9150509295509295909350565b7f4e487b7100000000000000000000000000000000000000000000000000000000600052603260045260246000fd5b7f4e487b7100000000000000000000000000000000000000000000000000000000600052602260045260246000fd5b60006002820490506001821680611b7657607f821691505b60208210811415611b8a57611b89611b2f565b5b50919050565b600081905092915050565b60008190508160005260206000209050919050565b60008154611bbd81611b5e565b611bc78186611b90565b94506001821660008114611be25760018114611bf357611c26565b60ff19831686528186019350611c26565b611bfc85611b9b565b60005b83811015611c1e57815481890152600182019150602081019050611bff565b838801955050505b50505092915050565b6000611c3b8284611bb0565b915081905092915050565b7f4e487b7100000000000000000000000000000000000000000000000000000000600052601160045260246000fd5b6000819050919050565b6000611c8a82611c75565b91507fffffffffffffffffffffffffffffffffffffffffffffffffffffffffffffffff821415611cbd57611cbc611c46565b5b600182019050919050565b6000611cd3826114e8565b611cdd8185611b90565b9350611ced818560208601611504565b80840191505092915050565b6000611d058284611cc8565b91508190509291505056fea2646970667358221220d59b5682a44ec4a4f41b87a7a1adce75e77ebe64afc7af6cd137a18ad6d6117b64736f6c634300080b0033",
  "immutableReferences": {},
  "source": "pragma solidity >=0.4.22 <0.9.0;\r\n\r\nimport \"./MyUser.sol\";\r\nimport \"./MyProduct.sol\";\r\n\r\ncontract myPayment {\r\n    //import MyUser smart contract\r\n    MyUser userContr = new MyUser();\r\n\r\n    //import MyProduct smart contract\r\n    MyProduct prodContr = new MyProduct();\r\n\r\n    //Once paid, the transaction is pending until the order has been delivered\r\n    struct PendingTransaction {\r\n        address buyer_address;\r\n        address seller_address;\r\n        int256 pendingAmount;\r\n        string product_uuid;\r\n        string status;\r\n    }\r\n\r\n    mapping(string => PendingTransaction) pending;\r\n\r\n    string[] pendinglist;\r\n\r\n    modifier onlyUser() {\r\n        require(\r\n            bytes(userContr.getUser().name).length != 0,\r\n            \"You are not registered!\"\r\n        );\r\n        _;\r\n    }\r\n\r\n    function buyProduct(\r\n        string[] memory _uuid,\r\n        address product_address,\r\n        address user_address //address[] memory _seller\r\n    ) public {\r\n        //verify that buyer and seller has not the same adress\r\n        //require(_buyer != _seller, \"Can not buy your own product !\");\r\n        //verify that buyer has enough money\r\n        //require(\r\n        //    userContr.getUser().balance <= prodContr.getProduct(_uuid).price,\r\n        //    \"Not enough money to buy the product !\"\r\n        //);\r\n        //verify that the product can be bought -> Status == Available\r\n        //require(\r\n        //    keccak256(abi.encodePacked(prodContr.getProduct(_uuid).status)) ==\r\n        //      \"Available\",\r\n        //    \"Product can not be bought !\"\r\n        //);\r\n        //create a pending transaction -> buyer money should to reduce\r\n        for (uint256 i = 0; i < _uuid.length; i++) {\r\n            pending[_uuid[i]] = PendingTransaction(\r\n                msg.sender,\r\n                MyProduct(product_address).getProduct(_uuid[i]).seller,\r\n                MyProduct(product_address).getProduct(_uuid[i]).price,\r\n                _uuid[i],\r\n                \"Pending\"\r\n            );\r\n            pendinglist.push(_uuid[i]);\r\n\r\n            //set Product status to pending\r\n\r\n            MyProduct(product_address).setProductStatus(_uuid[i], \"Pending\");\r\n\r\n            //reduce buying money\r\n            MyUser(user_address).decreaseBalance(\r\n                MyProduct(product_address).getProduct(_uuid[i]).price,\r\n                msg.sender\r\n            );\r\n        }\r\n    }\r\n\r\n    //get pendingTransaction\r\n    function getPendingTransaction()\r\n        public\r\n        view\r\n        returns (PendingTransaction[] memory)\r\n    {\r\n        PendingTransaction[] memory temp = new PendingTransaction[](\r\n            pendinglist.length\r\n        );\r\n        for (uint256 i = 0; i < pendinglist.length; i++) {\r\n            temp[i] = pending[pendinglist[i]];\r\n        }\r\n\r\n        return temp;\r\n    }\r\n\r\n    //return one pending transaction\r\n    function getOnePendingTransaction(string memory _uuid)\r\n        public\r\n        view\r\n        returns (PendingTransaction memory)\r\n    {\r\n        return pending[_uuid];\r\n    }\r\n\r\n    //release payment\r\n    function releasePayment(\r\n        string memory _uuid,\r\n        address product_address,\r\n        address user_address\r\n    ) public {\r\n        //add the pending amount to seller account\r\n        PendingTransaction memory pen = pending[_uuid];\r\n        MyUser(user_address)._setBalance(pen.pendingAmount, pen.seller_address);\r\n        pen.status = \"Closed\";\r\n        pending[_uuid] = pen;\r\n\r\n        //remove pending payment\r\n        //delete pending[_uuid];\r\n        //for (uint256 i = 0; i < pendinglist.length; i++) {\r\n        //    if (\r\n        //        keccak256(abi.encodePacked(pendinglist[i])) ==\r\n        //        keccak256(abi.encodePacked(_uuid))\r\n        //    ) {\r\n        //        pendinglist[i] = pendinglist[pendinglist.length - 1];\r\n        //        pendinglist.pop();\r\n        //    }\r\n        //}\r\n        //change product status to Sold\r\n        MyProduct(product_address).setProductStatus(_uuid, \"Sold\");\r\n    }\r\n}\r\n",
  "sourcePath": "C:\\Users\\kesig\\OneDrive\\Bureau\\shopping_blockchain\\truffle\\contracts\\MyPayment.sol",
  "compiler": {
    "name": "solc",
    "version": "0.8.11+commit.d7f03943.Emscripten.clang"
  },
  "schemaVersion": "3.4.4",
  "updatedAt": "2022-06-19T16:38:11.044Z",
  "networkType": "ethereum",
  "devdoc": {
    "kind": "dev",
    "methods": {},
    "version": 1
  },
  "userdoc": {
    "kind": "user",
    "methods": {},
    "version": 1
  }
}