{
  "contractName": "MyProduct",
  "abi": [
    {
      "inputs": [
        {
          "internalType": "string",
          "name": "_name",
          "type": "string"
        },
        {
          "internalType": "string",
          "name": "_description",
          "type": "string"
        },
        {
          "internalType": "int256",
          "name": "_price",
          "type": "int256"
        },
        {
          "internalType": "string",
          "name": "_uuid",
          "type": "string"
        },
        {
          "internalType": "string",
          "name": "image",
          "type": "string"
        }
      ],
      "name": "createProduct",
      "outputs": [],
      "stateMutability": "nonpayable",
      "type": "function"
    },
    {
      "inputs": [
        {
          "internalType": "string",
          "name": "_uuid",
          "type": "string"
        }
      ],
      "name": "getProduct",
      "outputs": [
        {
          "components": [
            {
              "internalType": "string",
              "name": "uuid",
              "type": "string"
            },
            {
              "internalType": "string",
              "name": "name",
              "type": "string"
            },
            {
              "internalType": "string",
              "name": "description",
              "type": "string"
            },
            {
              "internalType": "address",
              "name": "seller",
              "type": "address"
            },
            {
              "internalType": "int256",
              "name": "price",
              "type": "int256"
            },
            {
              "internalType": "string",
              "name": "status",
              "type": "string"
            },
            {
              "internalType": "string",
              "name": "image",
              "type": "string"
            }
          ],
          "internalType": "struct MyProduct.Product",
          "name": "",
          "type": "tuple"
        }
      ],
      "stateMutability": "view",
      "type": "function",
      "constant": true
    },
    {
      "inputs": [
        {
          "internalType": "address",
          "name": "_seller",
          "type": "address"
        }
      ],
      "name": "getProducts",
      "outputs": [
        {
          "components": [
            {
              "internalType": "string",
              "name": "uuid",
              "type": "string"
            },
            {
              "internalType": "string",
              "name": "name",
              "type": "string"
            },
            {
              "internalType": "string",
              "name": "description",
              "type": "string"
            },
            {
              "internalType": "address",
              "name": "seller",
              "type": "address"
            },
            {
              "internalType": "int256",
              "name": "price",
              "type": "int256"
            },
            {
              "internalType": "string",
              "name": "status",
              "type": "string"
            },
            {
              "internalType": "string",
              "name": "image",
              "type": "string"
            }
          ],
          "internalType": "struct MyProduct.Product[]",
          "name": "",
          "type": "tuple[]"
        }
      ],
      "stateMutability": "view",
      "type": "function",
      "constant": true
    },
    {
      "inputs": [],
      "name": "getProductsAll",
      "outputs": [
        {
          "components": [
            {
              "internalType": "string",
              "name": "uuid",
              "type": "string"
            },
            {
              "internalType": "string",
              "name": "name",
              "type": "string"
            },
            {
              "internalType": "string",
              "name": "description",
              "type": "string"
            },
            {
              "internalType": "address",
              "name": "seller",
              "type": "address"
            },
            {
              "internalType": "int256",
              "name": "price",
              "type": "int256"
            },
            {
              "internalType": "string",
              "name": "status",
              "type": "string"
            },
            {
              "internalType": "string",
              "name": "image",
              "type": "string"
            }
          ],
          "internalType": "struct MyProduct.Product[]",
          "name": "",
          "type": "tuple[]"
        }
      ],
      "stateMutability": "view",
      "type": "function",
      "constant": true
    },
    {
      "inputs": [
        {
          "internalType": "string",
          "name": "_uuid",
          "type": "string"
        },
        {
          "internalType": "string",
          "name": "_status",
          "type": "string"
        }
      ],
      "name": "setProductStatus",
      "outputs": [],
      "stateMutability": "nonpayable",
      "type": "function"
    }
  ],
  "bytecode": "0x608060405234801561001057600080fd5b50611d46806100206000396000f3fe608060405234801561001057600080fd5b50600436106100575760003560e01c80631691473c1461005c57806368111cce1461008c57806381ebfc7c146100bc578063c41f8cfa146100d8578063eb563c0a146100f4575b600080fd5b6100766004803603810190610071919061148f565b610112565b60405161008391906116f7565b60405180910390f35b6100a660048036038101906100a1919061184e565b610573565b6040516100b3919061194f565b60405180910390f35b6100d660048036038101906100d19190611971565b6108e5565b005b6100f260048036038101906100ed9190611a15565b610d3b565b005b6100fc610eff565b60405161010991906116f7565b60405180910390f35b60608060005b600180549050811015610569578373ffffffffffffffffffffffffffffffffffffffff1660006001838154811061015257610151611b00565b5b906000526020600020016040516101699190611c2f565b908152602001604051809103902060030160009054906101000a900473ffffffffffffffffffffffffffffffffffffffff1673ffffffffffffffffffffffffffffffffffffffff161415610556576000600182815481106101cd576101cc611b00565b5b906000526020600020016040516101e49190611c2f565b90815260200160405180910390206040518060e001604052908160008201805461020d90611b5e565b80601f016020809104026020016040519081016040528092919081815260200182805461023990611b5e565b80156102865780601f1061025b57610100808354040283529160200191610286565b820191906000526020600020905b81548152906001019060200180831161026957829003601f168201915b5050505050815260200160018201805461029f90611b5e565b80601f01602080910402602001604051908101604052809291908181526020018280546102cb90611b5e565b80156103185780601f106102ed57610100808354040283529160200191610318565b820191906000526020600020905b8154815290600101906020018083116102fb57829003601f168201915b5050505050815260200160028201805461033190611b5e565b80601f016020809104026020016040519081016040528092919081815260200182805461035d90611b5e565b80156103aa5780601f1061037f576101008083540402835291602001916103aa565b820191906000526020600020905b81548152906001019060200180831161038d57829003601f168201915b505050505081526020016003820160009054906101000a900473ffffffffffffffffffffffffffffffffffffffff1673ffffffffffffffffffffffffffffffffffffffff1673ffffffffffffffffffffffffffffffffffffffff1681526020016004820154815260200160058201805461042390611b5e565b80601f016020809104026020016040519081016040528092919081815260200182805461044f90611b5e565b801561049c5780601f106104715761010080835404028352916020019161049c565b820191906000526020600020905b81548152906001019060200180831161047f57829003601f168201915b505050505081526020016006820180546104b590611b5e565b80601f01602080910402602001604051908101604052809291908181526020018280546104e190611b5e565b801561052e5780601f106105035761010080835404028352916020019161052e565b820191906000526020600020905b81548152906001019060200180831161051157829003601f168201915b50505050508152505082828151811061054a57610549611b00565b5b60200260200101819052505b808061056190611c7f565b915050610118565b5080915050919050565b61057b611327565b60008260405161058b9190611cf9565b90815260200160405180910390206040518060e00160405290816000820180546105b490611b5e565b80601f01602080910402602001604051908101604052809291908181526020018280546105e090611b5e565b801561062d5780601f106106025761010080835404028352916020019161062d565b820191906000526020600020905b81548152906001019060200180831161061057829003601f168201915b5050505050815260200160018201805461064690611b5e565b80601f016020809104026020016040519081016040528092919081815260200182805461067290611b5e565b80156106bf5780601f10610694576101008083540402835291602001916106bf565b820191906000526020600020905b8154815290600101906020018083116106a257829003601f168201915b505050505081526020016002820180546106d890611b5e565b80601f016020809104026020016040519081016040528092919081815260200182805461070490611b5e565b80156107515780601f1061072657610100808354040283529160200191610751565b820191906000526020600020905b81548152906001019060200180831161073457829003601f168201915b505050505081526020016003820160009054906101000a900473ffffffffffffffffffffffffffffffffffffffff1673ffffffffffffffffffffffffffffffffffffffff1673ffffffffffffffffffffffffffffffffffffffff168152602001600482015481526020016005820180546107ca90611b5e565b80601f01602080910402602001604051908101604052809291908181526020018280546107f690611b5e565b80156108435780601f1061081857610100808354040283529160200191610843565b820191906000526020600020905b81548152906001019060200180831161082657829003601f168201915b5050505050815260200160068201805461085c90611b5e565b80601f016020809104026020016040519081016040528092919081815260200182805461088890611b5e565b80156108d55780601f106108aa576101008083540402835291602001916108d5565b820191906000526020600020905b8154815290600101906020018083116108b857829003601f168201915b5050505050815250509050919050565b6040518060e001604052806000846040516109009190611cf9565b9081526020016040518091039020600001805461091c90611b5e565b80601f016020809104026020016040519081016040528092919081815260200182805461094890611b5e565b80156109955780601f1061096a57610100808354040283529160200191610995565b820191906000526020600020905b81548152906001019060200180831161097857829003601f168201915b505050505081526020016000846040516109af9190611cf9565b908152602001604051809103902060010180546109cb90611b5e565b80601f01602080910402602001604051908101604052809291908181526020018280546109f790611b5e565b8015610a445780601f10610a1957610100808354040283529160200191610a44565b820191906000526020600020905b815481529060010190602001808311610a2757829003601f168201915b50505050508152602001600084604051610a5e9190611cf9565b90815260200160405180910390206002018054610a7a90611b5e565b80601f0160208091040260200160405190810160405280929190818152602001828054610aa690611b5e565b8015610af35780601f10610ac857610100808354040283529160200191610af3565b820191906000526020600020905b815481529060010190602001808311610ad657829003601f168201915b50505050508152602001600084604051610b0d9190611cf9565b908152602001604051809103902060030160009054906101000a900473ffffffffffffffffffffffffffffffffffffffff1673ffffffffffffffffffffffffffffffffffffffff168152602001600084604051610b6a9190611cf9565b9081526020016040518091039020600401548152602001828152602001600084604051610b979190611cf9565b90815260200160405180910390206006018054610bb390611b5e565b80601f0160208091040260200160405190810160405280929190818152602001828054610bdf90611b5e565b8015610c2c5780601f10610c0157610100808354040283529160200191610c2c565b820191906000526020600020905b815481529060010190602001808311610c0f57829003601f168201915b5050505050815250600083604051610c449190611cf9565b90815260200160405180910390206000820151816000019080519060200190610c6e92919061137a565b506020820151816001019080519060200190610c8b92919061137a565b506040820151816002019080519060200190610ca892919061137a565b5060608201518160030160006101000a81548173ffffffffffffffffffffffffffffffffffffffff021916908373ffffffffffffffffffffffffffffffffffffffff1602179055506080820151816004015560a0820151816005019080519060200190610d1692919061137a565b5060c0820151816006019080519060200190610d3392919061137a565b509050505050565b6040518060e001604052808381526020018681526020018581526020013373ffffffffffffffffffffffffffffffffffffffff1681526020018481526020016040518060400160405280600981526020017f417661696c61626c650000000000000000000000000000000000000000000000815250815260200182815250600083604051610dc99190611cf9565b90815260200160405180910390206000820151816000019080519060200190610df392919061137a565b506020820151816001019080519060200190610e1092919061137a565b506040820151816002019080519060200190610e2d92919061137a565b5060608201518160030160006101000a81548173ffffffffffffffffffffffffffffffffffffffff021916908373ffffffffffffffffffffffffffffffffffffffff1602179055506080820151816004015560a0820151816005019080519060200190610e9b92919061137a565b5060c0820151816006019080519060200190610eb892919061137a565b50905050600182908060018154018082558091505060019003906000526020600020016000909190919091509080519060200190610ef792919061137a565b505050505050565b6060600060018054905067ffffffffffffffff811115610f2257610f21611723565b5b604051908082528060200260200182016040528015610f5b57816020015b610f48611327565b815260200190600190039081610f405790505b50905060005b60018054905081101561131f57600060018281548110610f8457610f83611b00565b5b90600052602060002001604051610f9b9190611c2f565b90815260200160405180910390206040518060e0016040529081600082018054610fc490611b5e565b80601f0160208091040260200160405190810160405280929190818152602001828054610ff090611b5e565b801561103d5780601f106110125761010080835404028352916020019161103d565b820191906000526020600020905b81548152906001019060200180831161102057829003601f168201915b5050505050815260200160018201805461105690611b5e565b80601f016020809104026020016040519081016040528092919081815260200182805461108290611b5e565b80156110cf5780601f106110a4576101008083540402835291602001916110cf565b820191906000526020600020905b8154815290600101906020018083116110b257829003601f168201915b505050505081526020016002820180546110e890611b5e565b80601f016020809104026020016040519081016040528092919081815260200182805461111490611b5e565b80156111615780601f1061113657610100808354040283529160200191611161565b820191906000526020600020905b81548152906001019060200180831161114457829003601f168201915b505050505081526020016003820160009054906101000a900473ffffffffffffffffffffffffffffffffffffffff1673ffffffffffffffffffffffffffffffffffffffff1673ffffffffffffffffffffffffffffffffffffffff168152602001600482015481526020016005820180546111da90611b5e565b80601f016020809104026020016040519081016040528092919081815260200182805461120690611b5e565b80156112535780601f1061122857610100808354040283529160200191611253565b820191906000526020600020905b81548152906001019060200180831161123657829003601f168201915b5050505050815260200160068201805461126c90611b5e565b80601f016020809104026020016040519081016040528092919081815260200182805461129890611b5e565b80156112e55780601f106112ba576101008083540402835291602001916112e5565b820191906000526020600020905b8154815290600101906020018083116112c857829003601f168201915b50505050508152505082828151811061130157611300611b00565b5b6020026020010181905250808061131790611c7f565b915050610f61565b508091505090565b6040518060e00160405280606081526020016060815260200160608152602001600073ffffffffffffffffffffffffffffffffffffffff1681526020016000815260200160608152602001606081525090565b82805461138690611b5e565b90600052602060002090601f0160209004810192826113a857600085556113ef565b82601f106113c157805160ff19168380011785556113ef565b828001600101855582156113ef579182015b828111156113ee5782518255916020019190600101906113d3565b5b5090506113fc9190611400565b5090565b5b80821115611419576000816000905550600101611401565b5090565b6000604051905090565b600080fd5b600080fd5b600073ffffffffffffffffffffffffffffffffffffffff82169050919050565b600061145c82611431565b9050919050565b61146c81611451565b811461147757600080fd5b50565b60008135905061148981611463565b92915050565b6000602082840312156114a5576114a4611427565b5b60006114b38482850161147a565b91505092915050565b600081519050919050565b600082825260208201905092915050565b6000819050602082019050919050565b600081519050919050565b600082825260208201905092915050565b60005b83811015611522578082015181840152602081019050611507565b83811115611531576000848401525b50505050565b6000601f19601f8301169050919050565b6000611553826114e8565b61155d81856114f3565b935061156d818560208601611504565b61157681611537565b840191505092915050565b61158a81611451565b82525050565b6000819050919050565b6115a381611590565b82525050565b600060e08301600083015184820360008601526115c68282611548565b915050602083015184820360208601526115e08282611548565b915050604083015184820360408601526115fa8282611548565b915050606083015161160f6060860182611581565b506080830151611622608086018261159a565b5060a083015184820360a086015261163a8282611548565b91505060c083015184820360c08601526116548282611548565b9150508091505092915050565b600061166d83836115a9565b905092915050565b6000602082019050919050565b600061168d826114bc565b61169781856114c7565b9350836020820285016116a9856114d8565b8060005b858110156116e557848403895281516116c68582611661565b94506116d183611675565b925060208a019950506001810190506116ad565b50829750879550505050505092915050565b600060208201905081810360008301526117118184611682565b905092915050565b600080fd5b600080fd5b7f4e487b7100000000000000000000000000000000000000000000000000000000600052604160045260246000fd5b61175b82611537565b810181811067ffffffffffffffff8211171561177a57611779611723565b5b80604052505050565b600061178d61141d565b90506117998282611752565b919050565b600067ffffffffffffffff8211156117b9576117b8611723565b5b6117c282611537565b9050602081019050919050565b82818337600083830152505050565b60006117f16117ec8461179e565b611783565b90508281526020810184848401111561180d5761180c61171e565b5b6118188482856117cf565b509392505050565b600082601f83011261183557611834611719565b5b81356118458482602086016117de565b91505092915050565b60006020828403121561186457611863611427565b5b600082013567ffffffffffffffff8111156118825761188161142c565b5b61188e84828501611820565b91505092915050565b600060e08301600083015184820360008601526118b48282611548565b915050602083015184820360208601526118ce8282611548565b915050604083015184820360408601526118e88282611548565b91505060608301516118fd6060860182611581565b506080830151611910608086018261159a565b5060a083015184820360a08601526119288282611548565b91505060c083015184820360c08601526119428282611548565b9150508091505092915050565b600060208201905081810360008301526119698184611897565b905092915050565b6000806040838503121561198857611987611427565b5b600083013567ffffffffffffffff8111156119a6576119a561142c565b5b6119b285828601611820565b925050602083013567ffffffffffffffff8111156119d3576119d261142c565b5b6119df85828601611820565b9150509250929050565b6119f281611590565b81146119fd57600080fd5b50565b600081359050611a0f816119e9565b92915050565b600080600080600060a08688031215611a3157611a30611427565b5b600086013567ffffffffffffffff811115611a4f57611a4e61142c565b5b611a5b88828901611820565b955050602086013567ffffffffffffffff811115611a7c57611a7b61142c565b5b611a8888828901611820565b9450506040611a9988828901611a00565b935050606086013567ffffffffffffffff811115611aba57611ab961142c565b5b611ac688828901611820565b925050608086013567ffffffffffffffff811115611ae757611ae661142c565b5b611af388828901611820565b9150509295509295909350565b7f4e487b7100000000000000000000000000000000000000000000000000000000600052603260045260246000fd5b7f4e487b7100000000000000000000000000000000000000000000000000000000600052602260045260246000fd5b60006002820490506001821680611b7657607f821691505b60208210811415611b8a57611b89611b2f565b5b50919050565b600081905092915050565b60008190508160005260206000209050919050565b60008154611bbd81611b5e565b611bc78186611b90565b94506001821660008114611be25760018114611bf357611c26565b60ff19831686528186019350611c26565b611bfc85611b9b565b60005b83811015611c1e57815481890152600182019150602081019050611bff565b838801955050505b50505092915050565b6000611c3b8284611bb0565b915081905092915050565b7f4e487b7100000000000000000000000000000000000000000000000000000000600052601160045260246000fd5b6000819050919050565b6000611c8a82611c75565b91507fffffffffffffffffffffffffffffffffffffffffffffffffffffffffffffffff821415611cbd57611cbc611c46565b5b600182019050919050565b6000611cd3826114e8565b611cdd8185611b90565b9350611ced818560208601611504565b80840191505092915050565b6000611d058284611cc8565b91508190509291505056fea2646970667358221220d59b5682a44ec4a4f41b87a7a1adce75e77ebe64afc7af6cd137a18ad6d6117b64736f6c634300080b0033",
  "immutableReferences": {},
  "source": "// SPDX-License-Identifier: MIT\r\npragma solidity >=0.4.22 <0.9.0;\r\n\r\ncontract MyProduct {\r\n    //product detail\r\n    struct Product {\r\n        string uuid;\r\n        string name;\r\n        string description;\r\n        address seller;\r\n        int256 price;\r\n        string status;\r\n        string image;\r\n    }\r\n\r\n    mapping(string => Product) products;\r\n    string[] productlist;\r\n\r\n    function createProduct(\r\n        string memory _name,\r\n        string memory _description,\r\n        int256 _price,\r\n        string memory _uuid,\r\n        string memory image\r\n    ) external {\r\n        products[_uuid] = Product(\r\n            _uuid,\r\n            _name,\r\n            _description,\r\n            msg.sender,\r\n            _price,\r\n            \"Available\",\r\n            image\r\n        );\r\n        productlist.push(_uuid);\r\n    }\r\n\r\n    //get one product\r\n    function getProduct(string memory _uuid)\r\n        public\r\n        view\r\n        returns (Product memory)\r\n    {\r\n        return products[_uuid];\r\n    }\r\n\r\n    //get product from one user\r\n    function getProducts(address _seller)\r\n        public\r\n        view\r\n        returns (Product[] memory)\r\n    {\r\n        Product[] memory temp;\r\n        for (uint256 i = 0; i < productlist.length; i++) {\r\n            if (products[productlist[i]].seller == _seller) {\r\n                temp[i] = products[productlist[i]];\r\n            }\r\n        }\r\n        return temp;\r\n    }\r\n\r\n    //get all products\r\n    function getProductsAll() public view returns (Product[] memory) {\r\n        Product[] memory temp = new Product[](productlist.length);\r\n        for (uint256 i = 0; i < productlist.length; i++) {\r\n            temp[i] = products[productlist[i]];\r\n        }\r\n        return temp;\r\n    }\r\n\r\n    //set status -> use to update when payment\r\n    function setProductStatus(string memory _uuid, string memory _status)\r\n        public\r\n    {\r\n        products[_uuid] = Product(\r\n            products[_uuid].uuid,\r\n            products[_uuid].name,\r\n            products[_uuid].description,\r\n            products[_uuid].seller,\r\n            products[_uuid].price,\r\n            _status,\r\n            products[_uuid].image\r\n        );\r\n    }\r\n}\r\n",
  "sourcePath": "C:\\Users\\kesig\\OneDrive\\Bureau\\shopping_blockchain\\truffle\\contracts\\MyProduct.sol",
  "compiler": {
    "name": "solc",
    "version": "0.8.11+commit.d7f03943.Emscripten.clang"
  },
  "schemaVersion": "3.4.4",
  "updatedAt": "2022-06-19T14:03:27.593Z",
  "networkType": "ethereum",
  "devdoc": {
    "kind": "dev",
    "methods": {},
    "version": 1
  },
  "userdoc": {
    "kind": "user",
    "methods": {},
    "version": 1
  }
}