{
  "contractName": "MyUser",
  "abi": [
    {
      "inputs": [
        {
          "internalType": "string",
          "name": "_name",
          "type": "string"
        },
        {
          "internalType": "string",
          "name": "_phone_number",
          "type": "string"
        }
      ],
      "name": "createUser",
      "outputs": [],
      "stateMutability": "nonpayable",
      "type": "function"
    },
    {
      "inputs": [
        {
          "internalType": "string",
          "name": "_name",
          "type": "string"
        },
        {
          "internalType": "string",
          "name": "_phone_number",
          "type": "string"
        }
      ],
      "name": "updateUser",
      "outputs": [],
      "stateMutability": "nonpayable",
      "type": "function"
    },
    {
      "inputs": [],
      "name": "deleteUser",
      "outputs": [],
      "stateMutability": "nonpayable",
      "type": "function"
    },
    {
      "inputs": [],
      "name": "getUsers",
      "outputs": [
        {
          "components": [
            {
              "internalType": "address",
              "name": "user_address",
              "type": "address"
            },
            {
              "internalType": "string",
              "name": "name",
              "type": "string"
            },
            {
              "internalType": "string",
              "name": "phone_number",
              "type": "string"
            },
            {
              "internalType": "int256",
              "name": "balance",
              "type": "int256"
            }
          ],
          "internalType": "struct MyUser.User[]",
          "name": "",
          "type": "tuple[]"
        }
      ],
      "stateMutability": "view",
      "type": "function",
      "constant": true
    },
    {
      "inputs": [],
      "name": "getUser",
      "outputs": [
        {
          "components": [
            {
              "internalType": "address",
              "name": "user_address",
              "type": "address"
            },
            {
              "internalType": "string",
              "name": "name",
              "type": "string"
            },
            {
              "internalType": "string",
              "name": "phone_number",
              "type": "string"
            },
            {
              "internalType": "int256",
              "name": "balance",
              "type": "int256"
            }
          ],
          "internalType": "struct MyUser.User",
          "name": "",
          "type": "tuple"
        }
      ],
      "stateMutability": "view",
      "type": "function",
      "constant": true
    },
    {
      "inputs": [
        {
          "internalType": "int256",
          "name": "_balance",
          "type": "int256"
        }
      ],
      "name": "setBalance",
      "outputs": [],
      "stateMutability": "nonpayable",
      "type": "function"
    },
    {
      "inputs": [
        {
          "internalType": "int256",
          "name": "_balance",
          "type": "int256"
        },
        {
          "internalType": "address",
          "name": "_address",
          "type": "address"
        }
      ],
      "name": "decreaseBalance",
      "outputs": [],
      "stateMutability": "nonpayable",
      "type": "function"
    },
    {
      "inputs": [
        {
          "internalType": "int256",
          "name": "_balance",
          "type": "int256"
        },
        {
          "internalType": "address",
          "name": "_address",
          "type": "address"
        }
      ],
      "name": "_setBalance",
      "outputs": [],
      "stateMutability": "nonpayable",
      "type": "function"
    }
  ],
  "bytecode": "0x608060405234801561001057600080fd5b506116c2806100206000396000f3fe608060405234801561001057600080fd5b50600436106100875760003560e01c806387b162b51161005b57806387b162b5146100ee578063d75475a51461010a578063d83b066e14610126578063dd4a24251461014257610087565b8062ce8e3e1461008c578063026ff05e146100aa57806314ecdb34146100b4578063832880e7146100d0575b600080fd5b61009461015e565b6040516100a19190610fd2565b60405180910390f35b6100b2610411565b005b6100ce60048036038101906100c99190611060565b61062f565b005b6100d86106c5565b6040516100e5919061110a565b60405180910390f35b61010860048036038101906101039190611261565b61089f565b005b610124600480360381019061011f9190611060565b610a9a565b005b610140600480360381019061013b91906112d9565b610af6565b005b61015c60048036038101906101579190611261565b610b51565b005b6060600060018054905067ffffffffffffffff81111561018157610180611136565b5b6040519080825280602002602001820160405280156101ba57816020015b6101a7610c92565b81526020019060019003908161019f5790505b50905060005b60018054905081101561040957600080600183815481106101e4576101e3611306565b5b9060005260206000200160009054906101000a900473ffffffffffffffffffffffffffffffffffffffff1673ffffffffffffffffffffffffffffffffffffffff1673ffffffffffffffffffffffffffffffffffffffff1681526020019081526020016000206040518060800160405290816000820160009054906101000a900473ffffffffffffffffffffffffffffffffffffffff1673ffffffffffffffffffffffffffffffffffffffff1673ffffffffffffffffffffffffffffffffffffffff1681526020016001820180546102ba90611364565b80601f01602080910402602001604051908101604052809291908181526020018280546102e690611364565b80156103335780601f1061030857610100808354040283529160200191610333565b820191906000526020600020905b81548152906001019060200180831161031657829003601f168201915b5050505050815260200160028201805461034c90611364565b80601f016020809104026020016040519081016040528092919081815260200182805461037890611364565b80156103c55780601f1061039a576101008083540402835291602001916103c5565b820191906000526020600020905b8154815290600101906020018083116103a857829003601f168201915b505050505081526020016003820154815250508282815181106103eb576103ea611306565b5b60200260200101819052508080610401906113cf565b9150506101c0565b508091505090565b6000803373ffffffffffffffffffffffffffffffffffffffff1673ffffffffffffffffffffffffffffffffffffffff168152602001908152602001600020600080820160006101000a81549073ffffffffffffffffffffffffffffffffffffffff02191690556001820160006104879190610cd0565b6002820160006104979190610cd0565b6003820160009055505060005b60018054905081101561062c573373ffffffffffffffffffffffffffffffffffffffff16600182815481106104dc576104db611306565b5b9060005260206000200160009054906101000a900473ffffffffffffffffffffffffffffffffffffffff1673ffffffffffffffffffffffffffffffffffffffff1614156106195760018080805490506105359190611418565b8154811061054657610545611306565b5b9060005260206000200160009054906101000a900473ffffffffffffffffffffffffffffffffffffffff166001828154811061058557610584611306565b5b9060005260206000200160006101000a81548173ffffffffffffffffffffffffffffffffffffffff021916908373ffffffffffffffffffffffffffffffffffffffff16021790555060018054806105df576105de61144c565b5b6001900381819060005260206000200160006101000a81549073ffffffffffffffffffffffffffffffffffffffff0219169055905561062c565b8080610624906113cf565b9150506104a4565b50565b816000808373ffffffffffffffffffffffffffffffffffffffff1673ffffffffffffffffffffffffffffffffffffffff1681526020019081526020016000206003015461067c919061147b565b6000808373ffffffffffffffffffffffffffffffffffffffff1673ffffffffffffffffffffffffffffffffffffffff168152602001908152602001600020600301819055505050565b6106cd610c92565b6000803373ffffffffffffffffffffffffffffffffffffffff1673ffffffffffffffffffffffffffffffffffffffff1681526020019081526020016000206040518060800160405290816000820160009054906101000a900473ffffffffffffffffffffffffffffffffffffffff1673ffffffffffffffffffffffffffffffffffffffff1673ffffffffffffffffffffffffffffffffffffffff16815260200160018201805461077c90611364565b80601f01602080910402602001604051908101604052809291908181526020018280546107a890611364565b80156107f55780601f106107ca576101008083540402835291602001916107f5565b820191906000526020600020905b8154815290600101906020018083116107d857829003601f168201915b5050505050815260200160028201805461080e90611364565b80601f016020809104026020016040519081016040528092919081815260200182805461083a90611364565b80156108875780601f1061085c57610100808354040283529160200191610887565b820191906000526020600020905b81548152906001019060200180831161086a57829003601f168201915b50505050508152602001600382015481525050905090565b60008060003373ffffffffffffffffffffffffffffffffffffffff1673ffffffffffffffffffffffffffffffffffffffff16815260200190815260200160002060010180546108ed90611364565b90501461092f576040517f08c379a00000000000000000000000000000000000000000000000000000000081526004016109269061156c565b60405180910390fd5b60405180608001604052803373ffffffffffffffffffffffffffffffffffffffff16815260200183815260200182815260200160008152506000803373ffffffffffffffffffffffffffffffffffffffff1673ffffffffffffffffffffffffffffffffffffffff16815260200190815260200160002060008201518160000160006101000a81548173ffffffffffffffffffffffffffffffffffffffff021916908373ffffffffffffffffffffffffffffffffffffffff1602179055506020820151816001019080519060200190610a08929190610d10565b506040820151816002019080519060200190610a25929190610d10565b50606082015181600301559050506001339080600181540180825580915050600190039060005260206000200160009091909190916101000a81548173ffffffffffffffffffffffffffffffffffffffff021916908373ffffffffffffffffffffffffffffffffffffffff1602179055505050565b816000808373ffffffffffffffffffffffffffffffffffffffff1673ffffffffffffffffffffffffffffffffffffffff1681526020019081526020016000206003016000828254610aeb919061158c565b925050819055505050565b806000803373ffffffffffffffffffffffffffffffffffffffff1673ffffffffffffffffffffffffffffffffffffffff1681526020019081526020016000206003016000828254610b47919061158c565b9250508190555050565b60008060003373ffffffffffffffffffffffffffffffffffffffff1673ffffffffffffffffffffffffffffffffffffffff1681526020019081526020016000206001018054610b9f90611364565b90501415610be2576040517f08c379a0000000000000000000000000000000000000000000000000000000008152600401610bd99061166c565b60405180910390fd5b816000803373ffffffffffffffffffffffffffffffffffffffff1673ffffffffffffffffffffffffffffffffffffffff1681526020019081526020016000206001019080519060200190610c37929190610d10565b50806000803373ffffffffffffffffffffffffffffffffffffffff1673ffffffffffffffffffffffffffffffffffffffff1681526020019081526020016000206002019080519060200190610c8d929190610d10565b505050565b6040518060800160405280600073ffffffffffffffffffffffffffffffffffffffff1681526020016060815260200160608152602001600081525090565b508054610cdc90611364565b6000825580601f10610cee5750610d0d565b601f016020900490600052602060002090810190610d0c9190610d96565b5b50565b828054610d1c90611364565b90600052602060002090601f016020900481019282610d3e5760008555610d85565b82601f10610d5757805160ff1916838001178555610d85565b82800160010185558215610d85579182015b82811115610d84578251825591602001919060010190610d69565b5b509050610d929190610d96565b5090565b5b80821115610daf576000816000905550600101610d97565b5090565b600081519050919050565b600082825260208201905092915050565b6000819050602082019050919050565b600073ffffffffffffffffffffffffffffffffffffffff82169050919050565b6000610e0a82610ddf565b9050919050565b610e1a81610dff565b82525050565b600081519050919050565b600082825260208201905092915050565b60005b83811015610e5a578082015181840152602081019050610e3f565b83811115610e69576000848401525b50505050565b6000601f19601f8301169050919050565b6000610e8b82610e20565b610e958185610e2b565b9350610ea5818560208601610e3c565b610eae81610e6f565b840191505092915050565b6000819050919050565b610ecc81610eb9565b82525050565b6000608083016000830151610eea6000860182610e11565b5060208301518482036020860152610f028282610e80565b91505060408301518482036040860152610f1c8282610e80565b9150506060830151610f316060860182610ec3565b508091505092915050565b6000610f488383610ed2565b905092915050565b6000602082019050919050565b6000610f6882610db3565b610f728185610dbe565b935083602082028501610f8485610dcf565b8060005b85811015610fc05784840389528151610fa18582610f3c565b9450610fac83610f50565b925060208a01995050600181019050610f88565b50829750879550505050505092915050565b60006020820190508181036000830152610fec8184610f5d565b905092915050565b6000604051905090565b600080fd5b600080fd5b61101181610eb9565b811461101c57600080fd5b50565b60008135905061102e81611008565b92915050565b61103d81610dff565b811461104857600080fd5b50565b60008135905061105a81611034565b92915050565b6000806040838503121561107757611076610ffe565b5b60006110858582860161101f565b92505060206110968582860161104b565b9150509250929050565b60006080830160008301516110b86000860182610e11565b50602083015184820360208601526110d08282610e80565b915050604083015184820360408601526110ea8282610e80565b91505060608301516110ff6060860182610ec3565b508091505092915050565b6000602082019050818103600083015261112481846110a0565b905092915050565b600080fd5b600080fd5b7f4e487b7100000000000000000000000000000000000000000000000000000000600052604160045260246000fd5b61116e82610e6f565b810181811067ffffffffffffffff8211171561118d5761118c611136565b5b80604052505050565b60006111a0610ff4565b90506111ac8282611165565b919050565b600067ffffffffffffffff8211156111cc576111cb611136565b5b6111d582610e6f565b9050602081019050919050565b82818337600083830152505050565b60006112046111ff846111b1565b611196565b9050828152602081018484840111156112205761121f611131565b5b61122b8482856111e2565b509392505050565b600082601f8301126112485761124761112c565b5b81356112588482602086016111f1565b91505092915050565b6000806040838503121561127857611277610ffe565b5b600083013567ffffffffffffffff81111561129657611295611003565b5b6112a285828601611233565b925050602083013567ffffffffffffffff8111156112c3576112c2611003565b5b6112cf85828601611233565b9150509250929050565b6000602082840312156112ef576112ee610ffe565b5b60006112fd8482850161101f565b91505092915050565b7f4e487b7100000000000000000000000000000000000000000000000000000000600052603260045260246000fd5b7f4e487b7100000000000000000000000000000000000000000000000000000000600052602260045260246000fd5b6000600282049050600182168061137c57607f821691505b602082108114156113905761138f611335565b5b50919050565b7f4e487b7100000000000000000000000000000000000000000000000000000000600052601160045260246000fd5b6000819050919050565b60006113da826113c5565b91507fffffffffffffffffffffffffffffffffffffffffffffffffffffffffffffffff82141561140d5761140c611396565b5b600182019050919050565b6000611423826113c5565b915061142e836113c5565b92508282101561144157611440611396565b5b828203905092915050565b7f4e487b7100000000000000000000000000000000000000000000000000000000600052603160045260246000fd5b600061148682610eb9565b915061149183610eb9565b9250827f8000000000000000000000000000000000000000000000000000000000000000018212600084121516156114cc576114cb611396565b5b827f7fffffffffffffffffffffffffffffffffffffffffffffffffffffffffffffff01821360008412161561150457611503611396565b5b828203905092915050565b600082825260208201905092915050565b7f596f752061726520616c72656164792072656769737465726564210000000000600082015250565b6000611556601b8361150f565b915061156182611520565b602082019050919050565b6000602082019050818103600083015261158581611549565b9050919050565b600061159782610eb9565b91506115a283610eb9565b9250817f7fffffffffffffffffffffffffffffffffffffffffffffffffffffffffffffff038313600083121516156115dd576115dc611396565b5b817f800000000000000000000000000000000000000000000000000000000000000003831260008312161561161557611614611396565b5b828201905092915050565b7f596f7520617265206e6f74207265676973746572656421000000000000000000600082015250565b600061165660178361150f565b915061166182611620565b602082019050919050565b6000602082019050818103600083015261168581611649565b905091905056fea2646970667358221220de9ed9a0bdc8a21ae6e2cd0c3cb43a19027b6b1ea8484e3c555dafbccf1705dd64736f6c634300080b0033",
  "immutableReferences": {},
  "source": "// SPDX-License-Identifier: MIT\r\npragma solidity >=0.4.22 <0.9.0;\r\n\r\ncontract MyUser {\r\n    //define user name\r\n    //user address\r\n    // user phone number\r\n    // amount on the wallet\r\n\r\n    struct User {\r\n        address user_address;\r\n        string name;\r\n        string phone_number;\r\n        int256 balance;\r\n    }\r\n\r\n    mapping(address => User) users;\r\n    //keep track of all users\r\n    address[] userlist;\r\n\r\n    // function to create user data -> only user\r\n    // verify that user does not exist\r\n\r\n    function createUser(string memory _name, string memory _phone_number)\r\n        external\r\n    {\r\n        require(\r\n            bytes(users[msg.sender].name).length == 0,\r\n            \"You are already registered!\"\r\n        );\r\n        users[msg.sender] = User(msg.sender, _name, _phone_number, 0);\r\n        userlist.push(msg.sender);\r\n    }\r\n\r\n    // function to update user name -> only user\r\n    // verify that user exist\r\n    function updateUser(string memory _name, string memory _phone_number)\r\n        external\r\n    {\r\n        require(\r\n            bytes(users[msg.sender].name).length != 0,\r\n            \"You are not registered!\"\r\n        );\r\n        users[msg.sender].name = _name;\r\n        users[msg.sender].phone_number = _phone_number;\r\n    }\r\n\r\n    // function to delete user -> only user\r\n    function deleteUser() external {\r\n        delete users[msg.sender];\r\n        for (uint256 i = 0; i < userlist.length; i++) {\r\n            if (userlist[i] == msg.sender) {\r\n                userlist[i] = userlist[userlist.length - 1];\r\n                userlist.pop();\r\n                break;\r\n            }\r\n        }\r\n    }\r\n\r\n    // return all users\r\n    function getUsers() public view returns (User[] memory) {\r\n        User[] memory temp = new User[](userlist.length);\r\n        for (uint256 i = 0; i < userlist.length; i++) {\r\n            temp[i] = users[userlist[i]];\r\n        }\r\n        return temp;\r\n    }\r\n\r\n    //return one user\r\n    function getUser() public view returns (User memory) {\r\n        return users[msg.sender];\r\n    }\r\n\r\n    function setBalance(int256 _balance) public {\r\n        users[msg.sender].balance += _balance;\r\n    }\r\n\r\n    function decreaseBalance(int256 _balance, address _address) public {\r\n        //require(\r\n        //   users[_address].balance >= _balance,\r\n        //    \"Can not decrease amount !\"\r\n        //);\r\n        users[_address].balance = users[_address].balance - _balance;\r\n    }\r\n\r\n    function _setBalance(int256 _balance, address _address) public {\r\n        users[_address].balance += _balance;\r\n    }\r\n}\r\n",
  "sourcePath": "C:\\Users\\kesig\\OneDrive\\Bureau\\shopping_blockchain\\truffle\\contracts\\MyUser.sol",
  "compiler": {
    "name": "solc",
    "version": "0.8.11+commit.d7f03943.Emscripten.clang"
  },
  "schemaVersion": "3.4.4",
  "updatedAt": "2022-06-19T16:38:11.108Z",
  "networkType": "ethereum",
  "devdoc": {
    "kind": "dev",
    "methods": {},
    "version": 1
  },
  "userdoc": {
    "kind": "user",
    "methods": {},
    "version": 1
  }
}